:020000040000FA
:100000000C945E000C9486000C9486000C94860080
:100010000C9486000C9486000C9486000C94860048
:100020000C9486000C9486000C9486000C944B056E
:100030000C9486000C9486000C9486000C94860028
:100040000C94A9040C9486000C9419050C94F304E8
:100050000C9486000C9486000C9486000C94860008
:100060000C9486000C948600000000080002010039
:100070000003040700000000000000000000000072
:10008000250028002B0000000000240027002A0083
:10009000040404040404040402020202020203032E
:1000A0000303030301020408102040800102040836
:1000B00010200102040810200706E30811241FBEC7
:1000C000CFEFD8E0DEBFCDBF11E0A0E0B1E0E0E4CB
:1000D000F7E102C005900D92A03BB107D9F722E0ED
:1000E000A0EBB1E001C01D92A43AB207E1F710E025
:1000F000CDE5D0E004C02197FE010E949209CC35E5
:10010000D107C9F70E94DD060C94930B0C940000F4
:1001100090E0FC01EC55FF4F249180579F4FFC016C
:100120008491882399F090E0880F991FFC01EA5789
:10013000FF4FA591B491FC01E458FF4F8591949134
:100140008FB7F894EC91E22BEC938FBF089590E079
:10015000FC01E859FF4F2491FC01EC55FF4F34910D
:10016000FC01E057FF4FE491EE23C9F0222339F060
:10017000233001F1A8F4213019F1223029F1F0E007
:10018000EE0FFF1FE458FF4FA591B4918FB7F8947D
:10019000EC91611126C030953E233C938FBF0895AA
:1001A0002730A9F02830C9F0243049F78091800029
:1001B0008F7D03C0809180008F7780938000DFCF98
:1001C00084B58F7784BDDBCF84B58F7DFBCF8091E5
:1001D000B0008F778093B000D2CF8091B0008F7D38
:1001E000F9CF3E2BDACF3FB7F8948091B6019091CA
:1001F000B701A091B801B091B90126B5A89B05C07F
:100200002F3F19F00196A11DB11D3FBFBA2FA92F95
:10021000982F8827BC01CD01620F711D811D911D92
:1002200042E0660F771F881F991F4A95D1F70895FE
:100230008F929F92AF92BF92CF92DF92EF92FF92F6
:100240004B015C010E94F3006B017C010E94F300F2
:100250006C197D098E099F09683E734081059105DF
:10026000A8F321E0821A9108A108B10888EEC80E0F
:1002700083E0D81EE11CF11C81149104A104B10497
:1002800029F7FF90EF90DF90CF90BF90AF909F90B5
:100290008F900895AF92BF92CF92DF92EF92FF922C
:1002A0000F931F93CF93DF936C017B018B01040F9E
:1002B000151FEB015E01AE18BF08C017D10759F03A
:1002C0006991D601ED91FC910190F081E02DC6017C
:1002D0000995892B79F7C501DF91CF911F910F9176
:1002E000FF90EF90DF90CF90BF90AF900895FC010A
:1002F000538D448D252F30E0842F90E0821B930B8B
:10030000541710F0CF96089501970895FC01918D30
:10031000828D981761F0A28DAE0FBF2FB11D5D9633
:100320008C91928D9F5F9F73928F90E008958FEFD5
:100330009FEF0895FC01918D828D981731F0828D89
:10034000E80FF11D858D90E008958FEF9FEF0895E0
:10035000FC01918D228D892F90E0805C9F4F821B44
:1003600091098F73992708958AEB91E00E94A80163
:1003700021E0892B09F420E0822F089580E090E0AD
:10038000892B29F00E94B40181110C94000008957A
:10039000FC01A48DA80FB92FB11DA35ABF4F2C91FA
:1003A000848D90E001968F739927848FA689B789F1
:1003B0002C93A089B1898C91837080648C93938DE8
:1003C000848D981306C00288F389E02D80818F7D8B
:1003D00080830895EF92FF920F931F93CF93DF9343
:1003E000EC0181E0888F9B8D8C8D98131AC0E88971
:1003F000F989808185FF15C09FB7F894EE89FF8940
:100400006083E889F98980818370806480839FBFDD
:1004100081E090E0DF91CF911F910F91FF90EF90DD
:100420000895F62E0B8D10E00F5F1F4F0F731127ED
:10043000E02E8C8D8E110CC00FB607FCFACFE88928
:10044000F989808185FFF5CFCE010E94C801F1CFE7
:10045000EB8DEC0FFD2FF11DE35AFF4FF0829FB79C
:10046000F8940B8FEA89FB8980818062CFCFCF938C
:10047000DF93EC01888D8823B9F0AA89BB89E889CC
:10048000F9898C9185FD03C0808186FD0DC00FB672
:1004900007FCF7CF8C9185FFF2CF808185FFEDCFF0
:1004A000CE010E94C801E9CFDF91CF910895089550
:1004B00090E080E008958F929F92AF92BF92FF925A
:1004C0000F931F93CF93DF93FC01F0808BE08F1588
:1004D00008F44AC0828108E512E0081B110987FD73
:1004E0001395000F111F000F111F8181C8E8D0E084
:1004F000C81BD10987FDD395CC0FDD1FCC0FDD1FA5
:100500004E010D2E000CAA08BB089801012E000C0C
:10051000440B550B281939094A095B09DB010E9474
:10052000160924EB30E040E050E00E94EC08820E17
:10053000931EA41EB51E8C169D062CF0E801801695
:1005400091060CF4E4012297CC0FDD1F2FB7F8942D
:100550008F2D90E0FC01EE0FFF1FE80FF91FE95A05
:10056000FD4FD283C1832FBFDF91CF911F910F9198
:10057000FF90BF90AF909F908F9008951F93CF935F
:10058000DF93EC01162F88818C3008F04DC0862F48
:100590000E9488008881282F30E0F901EE0FFF1FAC
:1005A000E20FF31FE95AFD4F1F736081607C612BDE
:1005B000608319821A822CE0622F0E948609829F32
:1005C000B001112430E020E0AB01420F531FFA01CB
:1005D000EE0FFF1FE40FF51FE95AFD4F908196FDC6
:1005E00016C02F5F3F4F2C30310571F781110FC0BE
:1005F0001092800082E0809381001092850010921A
:100600008400B19A80916F00826080936F00E881CE
:100610008E2F90E0FC01EE0FFF1FE80FF91FE95A43
:10062000FD4F8081806480838881DF91CF911F910D
:100630000895CF93DF93EC0160E08E810E94A700C4
:1006400061E08E810E94A70060E08E810E94A70079
:100650008BE891E00197F1F7DF91CF910895CF9268
:10066000DF92EF92FF920F931F93CF93DF936C0172
:100670007C0187E0E80EF11CD0E0C0E0062F10E01E
:10068000B8010C2E02C0759567950A94E2F7617067
:10069000F70181917F010E94A7002196C430D10506
:1006A00079F7C601DF91CF911F910F91FF90EF90E5
:1006B000DF90CF900C941903CF92DF92EF92FF92CC
:1006C0000F931F93CF93DF93EC01F62E642F8C8151
:1006D0000E94A7008D818F3F19F060E00E94A70063
:1006E0000F2D10E08F8584FF25C06E0187E0C80EB6
:1006F000D11CF12CE12CB8010E2C02C07595679528
:100700000A94E2F76170F60181916F010E94A700DF
:10071000FFEFEF1AFF0A88E0E816F10461F7CE0157
:10072000DF91CF911F910F91FF90EF90DF90CF90CD
:100730000C941903B80184E0759567958A95E1F7E3
:10074000CE010E942F036F2DCE01DF91CF911F911B
:100750000F91FF90EF90DF90CF900C942F0340E02B
:10076000682F82E892E00C945C0381E00E94AF0362
:100770008BE39FE10197F1F70895CF93DF938230E8
:1007800029F4909191029860909391028093950240
:100790001092960280E48093970280E18093980201
:1007A00080E580939902809186020E948800809162
:1007B00087028F3F11F00E948800809188020E947A
:1007C0008800C2E8D2E09E01225832408091910216
:1007D00084FD0AC084E090E02196281739073CF494
:1007E0008E810E948800EFCF88E090E0F5CF8BE308
:1007F0009DE00197F1F760E0809186020E94A700DA
:1008000060E0809188020E94A700809187028F3F5C
:1008100019F060E00E94A7008091910284FD34C02D
:1008200063E082E892E00E942F03CBE4D6E4CE019D
:100830000197F1F763E082E892E00E942F0321978D
:10084000F1F763E082E892E00E942F0383E592E0F3
:100850000197F1F762E082E892E00E942F03809115
:10086000910280620E94AF0384E0809392028CE048
:100870000E94AF030E94B50382E08093930286E05A
:10088000DF91CF910C94AF0380620E94AF038BE4A1
:1008900096E40197F1F78091910280620E94AF0384
:1008A00083E592E00197F1F78091910280620E94C6
:1008B000AF03D5CF90919502891710F08FEF890F74
:1008C000E82FF0E0EE57FD4F848980680C94AF0369
:1008D00041E00E945C0381E090E00895FC010190FA
:1008E0000020E9F73197AF01481B590BBC0182E8A2
:1008F00092E00C944A01CF93DF93EC0180917C024B
:1009000090917D02009759F020917E0230917F02F4
:100910002C173D0720F081E0DF91CF910895BE01B3
:100920006F5F7F4F0E94BD0A009789F090937D0210
:1009300080937C02D0937F02C0937E02209180023C
:1009400030918102232B39F7FC011082E4CF80E043
:10095000E3CF1F920F920FB60F9211242F933F9364
:100960008F939F93AF93BF938091B2019091B30106
:10097000A091B401B091B5013091B10123E0230FF2
:100980002D3758F50196A11DB11D2093B10180931B
:10099000B2019093B301A093B401B093B5018091DB
:1009A000B6019091B701A091B801B091B90101963B
:1009B000A11DB11D8093B6019093B701A093B8011A
:1009C000B093B901BF91AF919F918F913F912F91BA
:1009D0000F900FBE0F901F90189526E8230F0296D8
:1009E000A11DB11DD2CF1F920F920FB60F921124ED
:1009F0002F933F934F935F936F937F938F939F9327
:100A0000AF93BF93EF93FF938AEB91E00E94C801ED
:100A1000FF91EF91BF91AF919F918F917F916F91D6
:100A20005F914F913F912F910F900FBE0F901F90AC
:100A300018951F920F920FB60F9211242F938F9338
:100A40009F93EF93FF93E091CA01F091CB018081D6
:100A5000E091D001F091D10182FD1BC09081809185
:100A6000D3018F5F8F732091D401821741F0E09101
:100A7000D301F0E0E654FE4F958F8093D301FF91B0
:100A8000EF919F918F912F910F900FBE0F901F901C
:100A900018958081F4CF1F920F920FB60F921124F8
:100AA0002F933F934F935F936F937F938F939F9376
:100AB000AF93BF93CF93DF93EF93FF938091B001F8
:100AC000C0917B02D0E087FF24C010928500109275
:100AD00084008091B0018F5F8093B0018091B0015C
:100AE000082E000C990B8C179D0724F48091B001FF
:100AF0008C30C4F1809184009091850004968034FC
:100B00009C4908F47AC080918400909185000496F5
:100B100076C08091B001082E000C990B8C179D07B0
:100B2000C4F6E091B0018E2FEE0F990BFC01EE0F91
:100B3000FF1FE80FF91FE95AFD4F808186FFC9CFDB
:100B4000E091B0018E2FEE0F990BFC01EE0FFF1F0D
:100B5000E80FF91FE95AFD4F808160E08F730E9412
:100B6000A700B7CF2091840030918500E091B001BB
:100B70008E2FEE0F990BFC01EE0FFF1FE80FF91FF0
:100B8000E95AFD4F81819281820F931F90938900D2
:100B900080938800E091B0018E2FEE0F990BFC013D
:100BA000EE0FFF1FE80FF91FE95AFD4F808186FF06
:100BB00011C0E091B0018E2FEE0F990BFC01EE0FEA
:100BC000FF1FE80FF91FE95AFD4F808161E08F7325
:100BD0000E94A700FF91EF91DF91CF91BF91AF915C
:100BE0009F918F917F916F915F914F913F912F9145
:100BF0000F900FBE0F901F90189580E49CE9909382
:100C00008900809388008FEF8093B001E3CF10922A
:100C1000BD011092BC0188EE93E0A0E0B0E08093AB
:100C2000BE019093BF01A093C001B093C1018AE0BF
:100C300091E09093BB018093BA0185EC90E0909392
:100C4000C7018093C60184EC90E09093C901809322
:100C5000C80180EC90E09093CB018093CA0181ECB5
:100C600090E09093CD018093CC0182EC90E0909342
:100C7000CF018093CE0186EC90E09093D1018093D8
:100C8000D0011092D3011092D4011092D50110928C
:100C9000D60180917B028C3008F07EC091E0980FE5
:100CA00090937B0280939D0290E0FC01EE0FFF1F6A
:100CB000E80FF91FE95AFD4F88EB9BE0928381838F
:100CC00080917B028C3008F06BC091E0980F90937C
:100CD0007B0280939A0290E0FC01EE0FFF1FE80F69
:100CE000F91FE95AFD4F88EB9BE0928381831092B4
:100CF0008502109284028CE191E0909383028093AC
:100D000082028EE0809386028FEF809387028FE0CD
:100D10008093880280E18093890281E180938A0236
:100D200082E180938B0283E180938C0210928D028A
:100D300010928E0210928F021092900210929102E5
:100D400081E00E94BD0310927D0210927C021092FD
:100D50007F0210927E02109281021092800290E037
:100D600080E00E947B0420917C0230917D02811101
:100D70001BC02115310519F0C9010E94340A1092D7
:100D80007D0210927C0210928102109280021092D9
:100D90007F0210927E0208958FEF80939D0290CF84
:100DA0008FEF80939A02A3CF10928102109280025B
:100DB0006EEA71E0C9010C948C0BCF93DF9300D0E5
:100DC000CDB7DEB7789484B5826084BD84B5816088
:100DD00084BD85B5826085BD85B5816085BD809106
:100DE0006E00816080936E0010928100809181007E
:100DF0008260809381008091810081608093810076
:100E0000809180008160809380008091B100846037
:100E10008093B1008091B00081608093B000809198
:100E20007A00846080937A0080917A008260809357
:100E30007A0080917A00816080937A0080917A00B4
:100E4000806880937A001092C100E091CA01F0910D
:100E5000CB0182E08083E091C601F091C70110824E
:100E6000E091C801F091C9018FEC80831092D2010A
:100E7000E091CE01F091CF0186E08083E091CC013A
:100E8000F091CD01808180618083E091CC01F0916F
:100E9000CD01808188608083E091CC01F091CD010B
:100EA000808180688083E091CC01F091CD018081C8
:100EB0008F7D808369E070E08DE992E00E94BE0240
:100EC0006AE070E08AE992E00E94BE0284E00E943B
:100ED000880085E00E94880086E00E94880087E004
:100EE0000E94880088E00E94880070E060E08DE940
:100EF00092E00E945B0270E060E08AE992E00E946A
:100F00005B0260E084E00E94A70061E085E00E944F
:100F1000A70060E086E00E94A70061E087E00E94F1
:100F2000A70060E088E00E94A70082E00E94BD0365
:100F300084E291E00E946E0480E0E82E80E0F82ECA
:100F40008AEB91E00E94A801892B09F430C18AEB59
:100F500091E00E94860100918002109181028D3003
:100F600019F08A3009F005C1012BD1F100917C0202
:100F700010917D0266E371E0C8010E94830B892B0A
:100F800009F04BC00E94B5038EE391E00E946E040D
:100F900061E084E00E94A70060E085E00E94A70075
:100FA0006AE570E08DE992E00E945B0268EB7BE00D
:100FB00080E090E00E94180170E060E08DE992E02E
:100FC0000E945B0260E084E00E94A70061E085E08F
:100FD0000E94A7000E94B50384E291E00E946E0483
:100FE00090E080E00E947B0420917C0230917D02A1
:100FF0008111B5C02115310519F0C9010E94340ACB
:1010000010927D0210927C02109281021092800256
:1010100010927F0210927E0293CF6FE471E0C801BC
:101020000E94830B892B09F03FC00E94B50380E02A
:101030000E945A0488E591E00E946E0481E00E94BB
:101040005A0486E691E00E946E0461E086E00E9408
:10105000A70060E087E00E94A70061E088E00E94AE
:10106000A70068EC70E080E090E00E94180160E06A
:1010700088E00E94A7006AE570E08AE992E00E9499
:101080005B0268EB7BE080E090E00E94180170E07A
:1010900060E08AE992E00E945B0260E086E00E94E4
:1010A000A70061E087E094CF66E771E0C8010E9485
:1010B000830B892BC9F50E94B50380E00E945A0476
:1010C0008FE791E00E946E0481E00E945A048EE84E
:1010D00091E00E946E0461E088E00E94A70064E64F
:1010E00070E080E090E00E94180160E088E00E94DB
:1010F000A70064E670E080E090E00E94180161E0E3
:1011000088E00E94A70064E670E080E090E00E9422
:10111000180160E088E00E94A70068EB7BE080E0B7
:1011200090E00E94180156CF0E94B5038CE991E02F
:101130000E946E04409180025091810260917C0275
:1011400070917D028AEB91E00E944A0142E050E0FA
:101150006CEA71E08AEB91E00E944A0141CF109263
:101160008102109280026EEA71E0C9010E948C0B2C
:10117000E7CE89831A820F5F1F4FC8010E947B044C
:10118000882309F4DDCE20917C0230917D0280918C
:10119000800290918102BE016F5F7F4F820F931F8B
:1011A0000E948C0B1093810200938002C9CEE1143F
:1011B000F10409F4C5CE0E94B401882309F4C0CE1D
:1011C0000E940000BDCE80917C0290917D0200972C
:1011D00011F00C94340A0895052E97FB1EF4009428
:1011E0000E94030957FD07D00E94550907FC03D050
:1011F0004EF40C94030950954095309521953F4F3E
:101200004F4F5F4F089590958095709561957F4FF2
:101210008F4F9F4F08950E947709A59F900DB49F0F
:10122000900DA49F800D911D11240895B7FF0C947B
:101230000B090E940B09821B930B08952F923F927A
:101240004F925F926F927F928F929F92AF92BF92D6
:10125000CF92DF92EF92FF920F931F93CF93DF9382
:10126000CDB7DEB7CA1BDB0B0FB6F894DEBF0FBEDF
:10127000CDBF09942A88398848885F846E847D842C
:101280008C849B84AA84B984C884DF80EE80FD802E
:101290000C811B81AA81B981CE0FD11D0FB6F894A4
:1012A000DEBF0FBECDBFED010895A1E21A2EAA1B2D
:1012B000BB1BFD010DC0AA1FBB1FEE1FFF1FA21706
:1012C000B307E407F50720F0A21BB30BE40BF50B03
:1012D000661F771F881F991F1A9469F7609570958C
:1012E000809590959B01AC01BD01CF010895A29F0F
:1012F000B001B39FC001A39F700D811D1124911DEA
:10130000B29F700D811D1124911D0895991B79E0E4
:1013100004C0991F961708F0961B881F7A95C9F785
:1013200080950895EE0FFF1F0590F491E02D09942C
:101330000F931F93CF93DF938230910510F482E0D7
:1013400090E0E091A202F091A30230E020E0B0E052
:10135000A0E0309799F42115310509F44AC0281B03
:10136000390B24303105D8F58A819B8161157105CF
:1013700089F1FB0193838283FE0111C04081518179
:101380000281138148175907E0F04817590799F46B
:10139000109761F012960C93129713961C93329645
:1013A000CF01DF91CF911F910F9108950093A20279
:1013B0001093A302F4CF2115310551F042175307C2
:1013C00038F0A901DB019A01BD01DF01F801C1CFAD
:1013D000EF01F9CF9093A3028093A202CDCFFE013B
:1013E000E20FF31F819391932250310939832883AF
:1013F000D7CF2091A0023091A102232B41F420915C
:101400000201309103013093A1022093A0022091A8
:101410000001309101012115310541F42DB73EB78E
:101420004091040150910501241B350BE091A0026D
:10143000F091A102E217F307A0F42E1B3F0B28172F
:10144000390778F0AC014E5F5F4F2417350748F03D
:101450004E0F5F1F5093A1024093A002819391937E
:101460009FCFF0E0E0E09CCFCF93DF930097E9F0CF
:10147000FC01329713821282A091A202B091A302C2
:10148000ED0130E020E01097A1F420813181820F3E
:10149000931F2091A0023091A1022817390709F06B
:1014A00061C0F093A102E093A002DF91CF91089573
:1014B000EA01CE17DF07E8F54A815B819E014115FD
:1014C0005105B1F7E901FB83EA8349915991C40FB2
:1014D000D51FEC17FD0761F4808191810296840F7E
:1014E000951FE90199838883828193819B838A83F5
:1014F000F0E0E0E012968D919C9113970097B9F57A
:101500002D913C911197CD010296820F931F20914E
:10151000A0023091A1022817390739F6309751F50A
:101520001092A3021092A202B093A102A093A00273
:10153000BCCFD383C28340815181840F951FC817CC
:10154000D90761F44E5F5F4F88819981480F591F19
:10155000518340838A819B81938382832115310546
:1015600009F0B0CFF093A302E093A2029ECFFD0159
:10157000DC01C0CF13821282D7CFB0E0A0E0E3EC51
:10158000FAE00C9420098C01009751F4CB010E94E1
:1015900098098C01C801CDB7DEB7E0E10C943C0995
:1015A000FC01E60FF71F9C0122503109E217F307F7
:1015B00008F49DC0D901CD91DC911197C617D707CA
:1015C00098F0C530D10530F3CE0104978617970700
:1015D00008F3C61BD70B2297C193D1936D937C93CD
:1015E000CF010E94340AD6CF5B01AC1ABD0A4C0170
:1015F0008C0E9D1EA091A202B091A302512C412CF1
:10160000F12CE12C109731F58091A0029091A1026C
:101610008815990509F05CC04616570608F058C0B1
:101620008091000190910101009741F48DB79EB720
:101630004091040150910501841B950BE817F907AF
:1016400008F055C0F093A102E093A002F901718364
:101650006083A0CF8D919C91119712966C901297F8
:1016600013967C901397A815B90559F56C0142E0C3
:10167000C40ED11CCA14DB0420F1AC014A195B0969
:10168000DA011296159780F062827382518340834B
:10169000D9016D937C93E114F10471F0D701139695
:1016A000FC93EE93129776CF22968C0F9D1FF90133
:1016B00091838083F301EFCFF093A302E093A20222
:1016C00069CF4816590608F42C017D01D3019ACF41
:1016D000CB010E9498097C01009749F0AE01B80146
:1016E0000E947A0BC8010E94340A870153CF10E090
:1016F00000E050CFFB01DC0102C001900D9241508F
:101700005040D8F70895FB01DC018D9101908019BC
:101710000110D9F3990B0895FB01DC0101900D92A2
:101720000020E1F7089510E0CDE5D0E004C0FE010F
:101730000E9492092196CE35D107C9F7F894FFCFC0
:101740000000A402800000000000EA014A017701C5
:101750003702A80186019A010000000068044A01CE
:101760005802570248652074686F6E672053616E97
:101770002053616E67004F50454E5F494E005661E1
:101780006F204F4B2D58696E206368616F21004FA9
:1017900050454E5F4F5554005448414E4820544FD9
:1017A000414E204F4B0054414D2042494554204B5F
:1017B0004841434821004E4F5F4D4F4E455900541C
:1017C000484520484554205449454E202100515554
:1017D00045542051522044452052410044616E67D7
:1017E00020646F63207468652E2E2E000D0A0000A1
:107E0000112484B714BE81FFF0D085E080938100F7
:107E100082E08093C00088E18093C10086E0809377
:107E2000C20080E18093C4008EE0C9D0259A86E02C
:107E300020E33CEF91E0309385002093840096BBD3
:107E4000B09BFECF1D9AA8958150A9F7CC24DD24C4
:107E500088248394B5E0AB2EA1E19A2EF3E0BF2EE7
:107E6000A2D0813461F49FD0082FAFD0023811F036
:107E7000013811F484E001C083E08DD089C08234E0
:107E800011F484E103C0853419F485E0A6D080C0E4
:107E9000853579F488D0E82EFF2485D0082F10E0AE
:107EA000102F00270E291F29000F111F8ED06801E7
:107EB0006FC0863521F484E090D080E0DECF843638
:107EC00009F040C070D06FD0082F6DD080E0C81688
:107ED00080E7D80618F4F601B7BEE895C0E0D1E017
:107EE00062D089930C17E1F7F0E0CF16F0E7DF06D8
:107EF00018F0F601B7BEE89568D007B600FCFDCFD4
:107F0000A601A0E0B1E02C9130E011968C91119780
:107F100090E0982F8827822B932B1296FA010C0160
:107F200087BEE89511244E5F5F4FF1E0A038BF0790
:107F300051F7F601A7BEE89507B600FCFDCF97BE46
:107F4000E89526C08437B1F42ED02DD0F82E2BD052
:107F50003CD0F601EF2C8F010F5F1F4F84911BD097
:107F6000EA94F801C1F70894C11CD11CFA94CF0C13
:107F7000D11C0EC0853739F428D08EE10CD085E9AC
:107F80000AD08FE07ACF813511F488E018D01DD067
:107F900080E101D065CF982F8091C00085FFFCCF94
:107FA0009093C60008958091C00087FFFCCF809118
:107FB000C00084FD01C0A8958091C6000895E0E648
:107FC000F0E098E1908380830895EDDF803219F02E
:107FD00088E0F5DFFFCF84E1DECF1F93182FE3DFCA
:107FE0001150E9F7F2DF1F91089580E0E8DFEE27F6
:047FF000FF270994CA
:027FFE00040479
:00000001FF
